:0A0C7300000102020303040405055A
:10059A00E4F513F512F511F510F51BF51AF519F531
:1005AA0018C203C200C202C2011208B843B2020052
:1005BA0000000000438002000000000043B4010074
:1005CA0000000000000000000053B4FD000000001D
:1005DA00007E017F008E238F24752B01752C1275E6
:1005EA00210175221C752901752A3C752D01752E6C
:1005FA005C90E680E030E70E852125852226852954
:10060A0027852A28800C852925852A26852127855C
:10061A002228EE54E0700302073A7514007515801B
:10062A007E017F008E168F17C374EC9FFF74019EA4
:10063A00CF2402CF3400FEE48F0F8E0EF50DF50C99
:10064A00F50BF50AF509F508AF0FAE0EAD0DAC0CBA
:10065A00AB0BAA0AA909A808C3120C62502AE5150D
:10066A00250BF582E514350AF58374CDF0E4FAF921
:10067A00F8E50B2401F50BEA350AF50AE93509F51F
:10068A0009E83508F50880C0E4F50BF50AF509F51F
:10069A0008AF0FAE0EAD0DAC0CAB0BAA0AA909A898
:1006AA0008C3120C625037E517250BF582E516359B
:1006BA000AF583E0FFE515250BF582E514350AF501
:1006CA0083EFF0E4FAF9F8E50B2401F50BEA350AB1
:1006DA00F50AE93509F509E83508F50880B38514FE
:1006EA002385152474002480FF740134FFFEC3E5BA
:1006FA002C9FF52CE52B9EF52BC3E5269FF526E5C9
:10070A00259EF525C3E5289FF528E5279EF527C3ED
:10071A00E5229FF522E5219EF521C3E52A9FF52AC8
:10072A00E5299EF529C3E52E9FF52EE52D9EF52D8B
:10073A00D2E843D82090E668E04409F090E65CE00D
:10074A00443DF0D2AF90E680E020E105D205120BDD
:10075A001890E680E054F7F0538EF8C20330010592
:10076A00120300C201300329120C895024C2031259
:10077A000B9E20001690E682E030E704E020E1EFCD
:10078A0090E682E030E604E020E0E4120B47120C27
:06079A008B120BC380C7A7
:0107A0002236
:1003000090E6B9E070030203DC1470030204852454
:10031000FE700302051A24FB70030203D614700357
:100320000203D01470030203C41470030203CA242E
:10033000056003020586120C8D400302059290E6CB
:10034000BBE024FE602C14604724FD60161460316D
:1003500024067066E52390E6B3F0E52490E6B4F059
:10036000020592E52B90E6B3F0E52C90E6B4F0029E
:100370000592E52590E6B3F0E52690E6B4F0020597
:1003800092E52790E6B3F0E52890E6B4F0020592F6
:1003900090E6BAE0FF120B73AA06A9077B01EA49AF
:1003A0004B600DEE90E6B3F0EF90E6B4F0020592EC
:1003B00090E6A0E04401F002059290E6A0E044013E
:1003C000F0020592120C50020592120C7D02059269
:1003D0001207A1020592120C3E020592120C8F40E8
:1003E0000302059290E6B8E0247F602B14603C2461
:1003F00002600302047BA200E433FF25E0FFA202B7
:10040000E4334F90E740F0E4A3F090E68AF090E602
:100410008B7402F0020592E490E740F0A3F090E6BE
:100420008AF090E68B7402F002059290E6BCE054EC
:100430007EFF7E00E0D3948040067C007D01800436
:100440007C007D00EC4EFEED4F2473F582740C3E73
:10045000F583E493FF3395E0FEEF24A1FFEE34E64D
:100460008F82F583E0540190E740F0E4A3F090E63A
:100470008AF090E68B7402F002059290E6A0E044C8
:1004800001F0020592120C91400302059290E6B829
:10049000E024FE601D2402600302059290E6BAE0AB
:1004A000B40105C20002059290E6A0E04401F0020A
:1004B000059290E6BAE0705990E6BCE0547EFF7E6B
:1004C00000E0D3948040067C007D0180047C007DA8
:1004D00000EC4EFEED4F2473F582740C3EF583E480
:1004E00093FF3395E0FEEF24A1FFEE34E68F82F513
:1004F00083E054FEF090E6BCE05480FF13131354E5
:100500001FFFE0540F2F90E683F0E04420F0020537
:100510009290E6A0E04401F08078120C9350739022
:10052000E6B8E024FE60202402706790E6BAE0B4EA
:100530000104D200805C90E6BAE06402605490E668
:10054000A0E04401F0804B90E6BCE0547EFF7E00CA
:10055000E0D3948040067C007D0180047C007D0017
:10056000EC4EFEED4F2473F582740C3EF583E4935C
:10057000FF3395E0FEEF24A1FFEE34E68F82F58392
:10058000E04401F0800C120C95500790E6A0E04486
:0905900001F090E6A0E04480F0C7
:01059900223F
:03003300020C8537
:040C850053D8EF321F
:100100001201000200000040B404031000000102CC
:1001100000010A0600020000004001000902200060
:10012000010100A0320904000002FF0000000705E1
:1001300002020002000705860200020009022000F8
:10014000010100A0320904000002FF0000000705C1
:10015000040240000007058802400000040309046F
:100160001003430079007000720065007300730093
:100170007C0345005A002D0055005300420020002A
:100180004600580032002000470050004900460059
:10019000200074006F0020004500780074002000EB
:1001A0004600490046004F002000450078006100ED
:1001B0006D0070006C006500200075007300690020
:1001C0006E0067002000530069006E0067006C003D
:1001D000650020005400720061006E007300610031
:0E01E0006300740069006F006E007300000081
:100C2A00421A030000411A0200C104411A0000419D
:030C3A001A01009C
:1008B80090E6007410F090E6027460F0000000907A
:1008C800E603F000000090E670E04480F0000000CD
:1008D80090E6017403F000000090E600E04402F0A6
:1008E80090E61274A0F000000090E61474E0F000A6
:1008F800000090E6137402F000000090E615F00086
:10090800000000000090E6047480F000000074020B
:10091800F00000007404F00000007406F00000000D
:100928007408F0000000E4F000000090E618F00001
:1009380000007411F000000090E61A740DF0000039
:0209480000228B
:100BC300E5A020E102D204300416E5A030E1119043
:100BD300E6017403F000000043A001000000C2041A
:010BE30022EF
:020C8900D32274
:020C8B00D32272
:020C8D00D32270
:1007A10090E680E030E71E90E6247402F00000003D
:1007B10090E626F0000000E490E625F000000090AD
:1007C100E627F0801CE490E624F000000090E62685
:1007D100F000000090E6257440F000000090E6274C
:0907E100F090E6BAE0F51FD32206
:100C3E0090E740E51FF0E490E68AF090E68B04F032
:020C4E00D322AF
:080C7D0090E6BAE0F51ED32257
:100C500090E740E51EF0E490E68AF090E68B04F021
:020C6000D3229D
:020C8F00D3226E
:020C9100D3226C
:020C9300D3226A
:020C9500D32268
:100BE400C0E0C083C082D2015391EF90E65D7401EE
:080BF400F0D082D083D0E03282
:1007EA00C0E0C083C0825391EF90E65D7404F0D0FC
:0607FA0082D083D0E03242
:100C1400C0E0C083C0825391EF90E65D7402F0D0CF
:060C240082D083D0E03213
:100AAA00C0E0C083C08290E680E030E70E85212551
:100ABA00852226852927852A28800C852925852AA5
:100ACA00268521278522285391EF90E65D7410F040
:070ADA00D082D083D0E0328E
:100BFC00C0E0C083C082D2035391EF90E65D7408CD
:080C0C00F0D082D083D0E03269
:100AE100C0E0C083C08290E680E030E70E8521251A
:100AF100852226852927852A28800C852925852A6E
:100B0100268521278522285391EF90E65D7420F0F8
:070B1100D082D083D0E03256
:010C9700322A
:010C98003229
:010C99003228
:010C9A003227
:010C9B003226
:010C9C003225
:010C9D003224
:010C9E003223
:010C9F003222
:010CA0003221
:010CA1003220
:010CA200321F
:010CA300321E
:010CA400321D
:010CA500321C
:010CA600321B
:010CA700321A
:010CA8003219
:010CA9003218
:010CAA003217
:010CAB003216
:010CAC003215
:010CAD003214
:010CAE003213
:010CAF003212
:010CB0003211
:010CB1003210
:010CB200320F
:010CB300320E
:010CB400320D
:010CB500320C
:010CB600320B
:010CB700320A
:010CB8003209
:010CB9003208
:010CBA003207
:1009D600AD07ED30E00D908100E0901A00F0A3E045
:1009E60054FEF0ED30E10D909100E0901A00F0A376
:1009F600E054FDF0ED30E20D90A100E0901A00F019
:100A0600A3E054FBF0ED30E30D90B100E0901A0046
:070A1600F0A3E054F7F02209
:100A1D00AD07ED30E00D908000E0901A00F0A3E0FE
:100A2D004401F0ED30E10D909000E0901A00F0A33C
:100A3D00E04402F0ED30E20D90A000E0901A00F0DD
:100A4D00A3E04404F0ED30E30D90B000E0901A0007
:070A5D00F0A3E04408F022C1
:100B470090E682E030E004E020E60B90E682E030B9
:100B5700E119E030E71590E680E04401F07F147E6C
:0C0B670000120A6490E680E054FEF022C8
:100B180030050990E680E0440AF0800790E680E01E
:100B28004408F07FDC7E05120A6490E65D74FFF0ED
:0F0B380090E65FF05391EF90E680E054F7F022E3
:020B7300A907D0
:100B7500AE2DAF2E8F828E83A3E064037017AD0177
:100B850019ED7001228F828E83E07C002FFDEC3EF3
:080B9500FEAF0580DFE4FEFF66
:010B9D002235
:100B9E0090E682E044C0F090E681F04387010000C9
:040BAE000000002221
:100A64008E1C8F1D90E600E054187012E51D2401C1
:100A7400FFE4351CC313F51CEF13F51D801590E638
:100A840000E05418FFBF100BE51D25E0F51DE51C23
:100A940033F51CE51D151DAE1C7002151C4E6005BA
:060AA400120BB280EE22ED
:100BB2007400F58690FDA57C05A3E582458370F956
:010BC2002210
:03004300020800B0
:03005300020800A0
:10080000020BE400020C14000207EA00020BFC00D9
:10081000020AAA00020AE100020C9700020C9800EA
:10082000020C9900020C9A00020C9B00020C9C0026
:10083000020C9D00020C9E00020C9F00020CA00006
:10084000020CA100020C9800020CA200020CA300F2
:10085000020CA400020CA500020CA600020CA700CA
:10086000020CA800020C9800020C9800020C9800E0
:10087000020CA900020CAA00020CAB00020CAC0096
:10088000020CAD00020CAE00020CAF00020CB00076
:10089000020CB100020CB200020CB300020CB40056
:1008A000020CB500020CB600020CB700020CB80036
:0808B000020CB900020CBA00B1
:0300000002094AA8
:0C094A00787FE4F6D8FD75812E0209913B
:100C6200EB9FF5F0EA9E42F0E99D42F0E89C45F0E8
:010C7200225F
:1009560002059AE493A3F8E493A34003F68001F218
:1009660008DFF48029E493A3F85407240CC8C333A2
:10097600C4540F4420C8834004F456800146F6DF71
:10098600E4800B0102040810204080900C2AE47ECB
:10099600019360BCA3FF543F30E509541FFEE49366
:1009A600A360010ECF54C025E060A840B8E493A32D
:1009B600FAE493A3F8E493A3C8C582C8CAC583CA58
:1009C600F0A3C8C582C8CAC583CADFE9DEE780BE10
:010C3D0000B6
:00000001FF
